:100000001EC04EC04DC04CC04BC04AC0C9C1C5C1C6
:1000100047C046C045C044C043C042C00FC240C0F4
:100020003FC03EC03DC03CC03BC03AC039C038C0F4
:1000300037C08BC135C034C033C032C04003112437
:100040001FBECFEFCDBFDFE3DEBF809140008093C6
:100050004000811105C098ED21E094BF209341003C
:100060008CBB1EE3A0E0BEE3E0EFF6E002C005902B
:100070000D92A430B107D9F72EE3A4E0BEE301C08E
:100080001D92AE38B207E1F710E0CFE1D0E003C037
:100090002197FE010AD3CE31D107D1F767D20BC326
:1000A000AFCF282F30E0F901EC51F94790819F3F05
:1000B00051F128523947D901EC91F0E0DF01AA0F44
:1000C000BB1FA050B24C2D913C9121153105D9F0A8
:1000D000492F50E0440F551F240F351FD9016D9350
:1000E0007C934FB7F8949F0155E0220F331F5A9528
:1000F000E1F7E0E1E90FE20FF0E0FC5F8081887F4B
:10010000816080834FBF0895E0914C3EF0914D3E59
:10011000309731F08091473E882311F090E00994A8
:100120000895DC011C96ED91FC91848188608483A4
:1001300008959C01285C3F4FDC015296EC91529748
:1001400051968C91E81730F4E20FF32FF11D808166
:1001500090E008958FEF9FEF0895FC01DC01D896A1
:1001600092898189981740F4A90FB11D2C919F5F46
:10017000928B822F90E008958FEF9FEF0895FC01FE
:1001800081899289891B990B0895CF92DF92EF9212
:10019000FF920F931F93CF936C014132510510F0E2
:1001A00040E250E0C42F7B0110E000E00C1780F427
:1001B000D7016D917D01D601ED91FC910190F08107
:1001C000E02DC601099598012F5F3F4F892B49F417
:1001D000C801CF911F910F91FF90EF90DF90CF90CA
:1001E00008958901E3CFFC01A089A03258F4A80F3B
:1001F000B92FB11D58966C9380898F5F808B81E0F9
:1002000090E0089590E080E0089590E080E0089507
:100210000F931F932FB7F89440911D3E50911E3EAF
:1002200060911F3E7091203E2FBFDC01AA0FBB1FC3
:10023000AA0FBB1FAF5DB14C0D911D912D913C914B
:1002400013974D935D936D937C931397FC01EF5C33
:10025000F14C90819B3F78F4401B510B620B730B68
:1002600080911C3E81110AC0423051056105710523
:1002700010F09F5F90831F910F9108958130D9F7FF
:100280004333510561057105A0F74F3151056105F3
:10029000710510F09E5FEECF42305105610571058A
:1002A00050F39D5FE7CF90E080E0B2CF81E090E037
:1002B000AFCF82E090E0ACCF83E090E0A9CF86E3BF
:1002C0009EE34BDF803961F410921C3E9091473ED3
:1002D0008091483E981751F086E39EE33EDFF6CFCB
:1002E0008139A1F781E080931C3EF0CF089590E022
:1002F000FC01E453F94720812F3FA9F0FC01E852AB
:10030000F947E081E295EE0FF0E0F46022838C5132
:100310009947DC018C918061E80FF11D8081662393
:1003200019F0886080830895877FFCCF45E050E016
:1003300061E37EE386E39EE328DFE1E3FEE384E01E
:10034000DF011D928A95E9F708951F920F920FB66B
:100350000F9211248F939F93AF93BF9380911D3E73
:1003600090911E3EA0911F3EB091203E0196A11D8E
:10037000B11D80931D3E90931E3EA0931F3EB093EF
:10038000203E81E08093960ABF91AF919F918F911B
:100390000F900FBE0F901F9018950F9302E003C0AF
:1003A0000F9300E000C00F920FB60F920BB60F92A2
:1003B0001F921124FF921F932F933F934F935F93AC
:1003C0006F937F938F939F93AF93BF93CF93DF935D
:1003D000EF93FF93A0E0BEE3A00FB11DCD91DC91A0
:1003E000000F0D5FA02FB0E0FC90109761F01F2D63
:1003F000169518F041F02296FBCFE991F9913097CC
:10040000B9F30995F5CFA02FB0E0FC92FF91EF91E1
:10041000DF91CF91BF91AF919F918F917F916F911C
:100420005F914F913F912F911F91FF901F900F90DF
:100430000BBE0F900FBE0F900F9118951F920F9249
:100440000FB60F9211242F933F934F935F936F93A7
:100450007F938F939F93AF93BF93EF93FF93E0911D
:10046000423EF091433E8385982F9C70B1F0858584
:100470001092473E1092463EFF91EF91BF91AF918F
:100480009F918F917F916F915F914F913F912F91AC
:100490000F900FBE0F901F90189586FF29C080FF08
:1004A0001FC081FF14C085858093453E2DDE1092CC
:1004B000463E1092493EE0914A3EF0914B3E3097C5
:1004C00009F00995E091423EF091433E07C08585D1
:1004D0008093453E1092473E1092483E83E031C0E3
:1004E00080E4838711DE1092473E1092483EC4CFCD
:1004F00087FFC2CF81FF27C084FF0AC08091443E9E
:1005000087FF06C08F778093443E82E08287B2CF18
:100510008091443E80688093443EA091493E809102
:10052000463EA81768F4B0E0A25BB14C8C91858779
:1005300083E082878091493E8F5F8093493E9CCFC4
:1005400082E0828799CF95858091473E803258F42A
:10055000E82FF0E0E259F14C90838091473E8F5FA5
:100560008093473EAFCF86E08287BDCFC1E088ED64
:1005700084BFC0936100C09301068FE0809308069A
:1005800081E28093000680E5809302068AE08093F2
:100590000B06C093030A8EEF8093260A8093270AE6
:1005A0008BE08093000A87E893E180939C0A909304
:1005B0009D0AC093950A1092910AD3E0D093900AB5
:1005C0007894789460E080E092DE60E088E08FDEEE
:1005D00060E081E08CDE60E08AE089DE62E082E05B
:1005E00086DEE1E3FEE385E0DF011D928A95E9F70F
:1005F000E1E2FEE380E1DF011D928A95E9F7809157
:10060000443E982F907679F4D093260480648093AA
:10061000443EE091423EF091433E84E18487168659
:1006200081EE8187C3838FE591E080934C3E909368
:100630004D3E86E991E080934A3E90934B3E63E5C0
:1006400071E080E02EDD66E571E088E02ADD69E595
:1006500071E081E026DD6CE571E08AE022DD80E872
:100660009091080496FD09C08093353EE7E8F3E1D8
:100670003197F1F700C00000F3CF1092353EF6CF6E
:10068000E6E3FEE31282138288EE93E0A0E0B0E09E
:1006900084839583A683B7838EEB96E880839183CA
:1006A00080EA98E0848795870895EE0FFF1F0590F4
:0A06B000F491E02D0994F894FFCFB7
:1006BA0000000000F300C50005019100BF00AD0075
:1006CA009900102040800804020102040801000079
:1006DA0000000101010100000000040506070302F1
:0606EA0001000102030003
:0406F0000C3E043E7A
:00000001FF
